{
  "contractName": "SocialContract",
  "abi": [
    {
      "anonymous": false,
      "inputs": [
        {
          "indexed": false,
          "internalType": "uint256",
          "name": "id",
          "type": "uint256"
        },
        {
          "indexed": false,
          "internalType": "string",
          "name": "title",
          "type": "string"
        },
        {
          "indexed": false,
          "internalType": "string",
          "name": "content",
          "type": "string"
        },
        {
          "indexed": false,
          "internalType": "address payable",
          "name": "author",
          "type": "address"
        },
        {
          "indexed": false,
          "internalType": "uint256",
          "name": "donationAmount",
          "type": "uint256"
        }
      ],
      "name": "DonateVideo",
      "type": "event"
    },
    {
      "anonymous": false,
      "inputs": [
        {
          "indexed": true,
          "internalType": "address",
          "name": "author",
          "type": "address"
        },
        {
          "indexed": false,
          "internalType": "uint256",
          "name": "postId",
          "type": "uint256"
        },
        {
          "indexed": false,
          "internalType": "string",
          "name": "title",
          "type": "string"
        }
      ],
      "name": "NewPost",
      "type": "event"
    },
    {
      "inputs": [],
      "name": "latestPostId",
      "outputs": [
        {
          "internalType": "uint256",
          "name": "",
          "type": "uint256"
        }
      ],
      "stateMutability": "view",
      "type": "function",
      "constant": true
    },
    {
      "inputs": [
        {
          "internalType": "uint256",
          "name": "",
          "type": "uint256"
        }
      ],
      "name": "posts",
      "outputs": [
        {
          "internalType": "string",
          "name": "title",
          "type": "string"
        },
        {
          "internalType": "string",
          "name": "content",
          "type": "string"
        },
        {
          "internalType": "address payable",
          "name": "author",
          "type": "address"
        },
        {
          "internalType": "uint256",
          "name": "created",
          "type": "uint256"
        },
        {
          "internalType": "uint256",
          "name": "donationAmount",
          "type": "uint256"
        }
      ],
      "stateMutability": "view",
      "type": "function",
      "constant": true
    },
    {
      "inputs": [
        {
          "internalType": "address",
          "name": "",
          "type": "address"
        }
      ],
      "name": "users",
      "outputs": [
        {
          "internalType": "string",
          "name": "username",
          "type": "string"
        },
        {
          "internalType": "string",
          "name": "bio",
          "type": "string"
        }
      ],
      "stateMutability": "view",
      "type": "function",
      "constant": true
    },
    {
      "inputs": [
        {
          "internalType": "string",
          "name": "title",
          "type": "string"
        },
        {
          "internalType": "string",
          "name": "content",
          "type": "string"
        }
      ],
      "name": "createPost",
      "outputs": [],
      "stateMutability": "nonpayable",
      "type": "function"
    },
    {
      "inputs": [
        {
          "internalType": "uint256",
          "name": "postId",
          "type": "uint256"
        },
        {
          "internalType": "string",
          "name": "title",
          "type": "string"
        }
      ],
      "name": "modifyPostTitle",
      "outputs": [],
      "stateMutability": "nonpayable",
      "type": "function"
    },
    {
      "inputs": [
        {
          "internalType": "uint256",
          "name": "postId",
          "type": "uint256"
        },
        {
          "internalType": "string",
          "name": "content",
          "type": "string"
        }
      ],
      "name": "modifyPostContent",
      "outputs": [],
      "stateMutability": "nonpayable",
      "type": "function"
    },
    {
      "inputs": [
        {
          "internalType": "string",
          "name": "username",
          "type": "string"
        }
      ],
      "name": "updateUsername",
      "outputs": [],
      "stateMutability": "nonpayable",
      "type": "function"
    },
    {
      "inputs": [
        {
          "internalType": "string",
          "name": "bio",
          "type": "string"
        }
      ],
      "name": "updateBio",
      "outputs": [],
      "stateMutability": "nonpayable",
      "type": "function"
    },
    {
      "inputs": [
        {
          "internalType": "address",
          "name": "author",
          "type": "address"
        }
      ],
      "name": "getPostIdsByAuthor",
      "outputs": [
        {
          "internalType": "uint256[]",
          "name": "",
          "type": "uint256[]"
        }
      ],
      "stateMutability": "view",
      "type": "function",
      "constant": true
    },
    {
      "inputs": [
        {
          "internalType": "uint256",
          "name": "postId",
          "type": "uint256"
        }
      ],
      "name": "getPostById",
      "outputs": [
        {
          "internalType": "string",
          "name": "title",
          "type": "string"
        },
        {
          "internalType": "string",
          "name": "content",
          "type": "string"
        }
      ],
      "stateMutability": "view",
      "type": "function",
      "constant": true
    },
    {
      "inputs": [
        {
          "internalType": "uint256",
          "name": "_id",
          "type": "uint256"
        }
      ],
      "name": "donateVideoOwner",
      "outputs": [],
      "stateMutability": "payable",
      "type": "function",
      "payable": true
    }
  ],
  "bytecode": "0x60806040526000805534801561001457600080fd5b506116c2806100246000396000f3fe60806040526004361061009c5760003560e01c806396d86a991161006457806396d86a99146101af57806396e3b296146101d85780639735f90f146101f45780639b15d0471461021d578063a87430ba14610248578063c96cea70146102865761009c565b80630b1e7f83146100a1578063392338f5146100e257806364e958951461010b5780636910cf8e1461014957806376487b3814610186575b600080fd5b3480156100ad57600080fd5b506100c860048036038101906100c3919061108a565b6102af565b6040516100d995949392919061127c565b60405180910390f35b3480156100ee57600080fd5b506101096004803603810190610104919061101e565b610415565b005b34801561011757600080fd5b50610132600480360381019061012d919061108a565b6105d7565b604051610140929190611245565b60405180910390f35b34801561015557600080fd5b50610170600480360381019061016b9190610fb4565b610721565b60405161017d9190611223565b60405180910390f35b34801561019257600080fd5b506101ad60048036038101906101a89190610fdd565b6107bb565b005b3480156101bb57600080fd5b506101d660048036038101906101d191906110b3565b610815565b005b6101f260048036038101906101ed919061108a565b6108e8565b005b34801561020057600080fd5b5061021b600480360381019061021691906110b3565b610c18565b005b34801561022957600080fd5b50610232610ceb565b60405161023f91906112fd565b60405180910390f35b34801561025457600080fd5b5061026f600480360381019061026a9190610fb4565b610cf1565b60405161027d929190611245565b60405180910390f35b34801561029257600080fd5b506102ad60048036038101906102a89190610fdd565b610e25565b005b60026020528060005260406000206000915090508060000180546102d290611545565b80601f01602080910402602001604051908101604052809291908181526020018280546102fe90611545565b801561034b5780601f106103205761010080835404028352916020019161034b565b820191906000526020600020905b81548152906001019060200180831161032e57829003601f168201915b50505050509080600101805461036090611545565b80601f016020809104026020016040519081016040528092919081815260200182805461038c90611545565b80156103d95780601f106103ae576101008083540402835291602001916103d9565b820191906000526020600020905b8154815290600101906020018083116103bc57829003601f168201915b5050505050908060020160009054906101000a900473ffffffffffffffffffffffffffffffffffffffff16908060030154908060040154905085565b60008081548092919061042790611577565b91905055506040518060a001604052808381526020018281526020013373ffffffffffffffffffffffffffffffffffffffff16815260200142815260200160008152506002600080548152602001908152602001600020600082015181600001908051906020019061049a929190610e7f565b5060208201518160010190805190602001906104b7929190610e7f565b5060408201518160020160006101000a81548173ffffffffffffffffffffffffffffffffffffffff021916908373ffffffffffffffffffffffffffffffffffffffff1602179055506060820151816003015560808201518160040155905050600160003373ffffffffffffffffffffffffffffffffffffffff1673ffffffffffffffffffffffffffffffffffffffff16815260200190815260200160002060020160005490806001815401808255809150506001900390600052602060002001600090919091909150553373ffffffffffffffffffffffffffffffffffffffff167fd8c86c7877c3f1f8a40af6cf64a11fe867af887f2a1ad31aac849e36730425b0600054846040516105cb929190611318565b60405180910390a25050565b6060806002600084815260200190815260200160002060000180546105fb90611545565b80601f016020809104026020016040519081016040528092919081815260200182805461062790611545565b80156106745780601f1061064957610100808354040283529160200191610674565b820191906000526020600020905b81548152906001019060200180831161065757829003601f168201915b5050505050915060026000848152602001908152602001600020600101805461069c90611545565b80601f01602080910402602001604051908101604052809291908181526020018280546106c890611545565b80156107155780601f106106ea57610100808354040283529160200191610715565b820191906000526020600020905b8154815290600101906020018083116106f857829003601f168201915b50505050509050915091565b6060600160008373ffffffffffffffffffffffffffffffffffffffff1673ffffffffffffffffffffffffffffffffffffffff1681526020019081526020016000206002018054806020026020016040519081016040528092919081815260200182805480156107af57602002820191906000526020600020905b81548152602001906001019080831161079b575b50505050509050919050565b80600160003373ffffffffffffffffffffffffffffffffffffffff1673ffffffffffffffffffffffffffffffffffffffff1681526020019081526020016000206001019080519060200190610811929190610e7f565b5050565b6002600083815260200190815260200160002060020160009054906101000a900473ffffffffffffffffffffffffffffffffffffffff1673ffffffffffffffffffffffffffffffffffffffff163373ffffffffffffffffffffffffffffffffffffffff16146108b9576040517f08c379a00000000000000000000000000000000000000000000000000000000081526004016108b0906112dd565b60405180910390fd5b806002600084815260200190815260200160002060010190805190602001906108e3929190610e7f565b505050565b6000811180156108fa57506000548111155b61090357600080fd5b6000600260008381526020019081526020016000206040518060a001604052908160008201805461093390611545565b80601f016020809104026020016040519081016040528092919081815260200182805461095f90611545565b80156109ac5780601f10610981576101008083540402835291602001916109ac565b820191906000526020600020905b81548152906001019060200180831161098f57829003601f168201915b505050505081526020016001820180546109c590611545565b80601f01602080910402602001604051908101604052809291908181526020018280546109f190611545565b8015610a3e5780601f10610a1357610100808354040283529160200191610a3e565b820191906000526020600020905b815481529060010190602001808311610a2157829003601f168201915b505050505081526020016002820160009054906101000a900473ffffffffffffffffffffffffffffffffffffffff1673ffffffffffffffffffffffffffffffffffffffff1673ffffffffffffffffffffffffffffffffffffffff1681526020016003820154815260200160048201548152505090506000816040015190508073ffffffffffffffffffffffffffffffffffffffff166108fc349081150290604051600060405180830381858888f19350505050158015610b02573d6000803e3d6000fd5b50348260800151610b13919061145f565b82608001818152505081600260008581526020019081526020016000206000820151816000019080519060200190610b4c929190610e7f565b506020820151816001019080519060200190610b69929190610e7f565b5060408201518160020160006101000a81548173ffffffffffffffffffffffffffffffffffffffff021916908373ffffffffffffffffffffffffffffffffffffffff16021790555060608201518160030155608082015181600401559050507fbf51283cbcdfcb4a594368eb4b1eb84d281eaf4ab817adb0cfc27f4ad86b223c8383600001518460200151848660800151604051610c0b959493929190611348565b60405180910390a1505050565b6002600083815260200190815260200160002060020160009054906101000a900473ffffffffffffffffffffffffffffffffffffffff1673ffffffffffffffffffffffffffffffffffffffff163373ffffffffffffffffffffffffffffffffffffffff1614610cbc576040517f08c379a0000000000000000000000000000000000000000000000000000000008152600401610cb3906112dd565b60405180910390fd5b80600260008481526020019081526020016000206000019080519060200190610ce6929190610e7f565b505050565b60005481565b6001602052806000526040600020600091509050806000018054610d1490611545565b80601f0160208091040260200160405190810160405280929190818152602001828054610d4090611545565b8015610d8d5780601f10610d6257610100808354040283529160200191610d8d565b820191906000526020600020905b815481529060010190602001808311610d7057829003601f168201915b505050505090806001018054610da290611545565b80601f0160208091040260200160405190810160405280929190818152602001828054610dce90611545565b8015610e1b5780601f10610df057610100808354040283529160200191610e1b565b820191906000526020600020905b815481529060010190602001808311610dfe57829003601f168201915b5050505050905082565b80600160003373ffffffffffffffffffffffffffffffffffffffff1673ffffffffffffffffffffffffffffffffffffffff1681526020019081526020016000206000019080519060200190610e7b929190610e7f565b5050565b828054610e8b90611545565b90600052602060002090601f016020900481019282610ead5760008555610ef4565b82601f10610ec657805160ff1916838001178555610ef4565b82800160010185558215610ef4579182015b82811115610ef3578251825591602001919060010190610ed8565b5b509050610f019190610f05565b5090565b5b80821115610f1e576000816000905550600101610f06565b5090565b6000610f35610f30846113da565b6113a9565b905082815260208101848484011115610f4d57600080fd5b610f58848285611503565b509392505050565b600081359050610f6f8161165e565b92915050565b600082601f830112610f8657600080fd5b8135610f96848260208601610f22565b91505092915050565b600081359050610fae81611675565b92915050565b600060208284031215610fc657600080fd5b6000610fd484828501610f60565b91505092915050565b600060208284031215610fef57600080fd5b600082013567ffffffffffffffff81111561100957600080fd5b61101584828501610f75565b91505092915050565b6000806040838503121561103157600080fd5b600083013567ffffffffffffffff81111561104b57600080fd5b61105785828601610f75565b925050602083013567ffffffffffffffff81111561107457600080fd5b61108085828601610f75565b9150509250929050565b60006020828403121561109c57600080fd5b60006110aa84828501610f9f565b91505092915050565b600080604083850312156110c657600080fd5b60006110d485828601610f9f565b925050602083013567ffffffffffffffff8111156110f157600080fd5b6110fd85828601610f75565b9150509250929050565b60006111138383611205565b60208301905092915050565b611128816114c7565b82525050565b60006111398261141a565b611143818561143d565b935061114e8361140a565b8060005b8381101561117f5781516111668882611107565b975061117183611430565b925050600181019050611152565b5085935050505092915050565b600061119782611425565b6111a1818561144e565b93506111b1818560208601611512565b6111ba8161164d565b840191505092915050565b60006111d2601a8361144e565b91507f4f6e6c792074686520617574686f722063616e206d6f646966790000000000006000830152602082019050919050565b61120e816114f9565b82525050565b61121d816114f9565b82525050565b6000602082019050818103600083015261123d818461112e565b905092915050565b6000604082019050818103600083015261125f818561118c565b90508181036020830152611273818461118c565b90509392505050565b600060a0820190508181036000830152611296818861118c565b905081810360208301526112aa818761118c565b90506112b9604083018661111f565b6112c66060830185611214565b6112d36080830184611214565b9695505050505050565b600060208201905081810360008301526112f6816111c5565b9050919050565b60006020820190506113126000830184611214565b92915050565b600060408201905061132d6000830185611214565b818103602083015261133f818461118c565b90509392505050565b600060a08201905061135d6000830188611214565b818103602083015261136f818761118c565b90508181036040830152611383818661118c565b9050611392606083018561111f565b61139f6080830184611214565b9695505050505050565b6000604051905081810181811067ffffffffffffffff821117156113d0576113cf61161e565b5b8060405250919050565b600067ffffffffffffffff8211156113f5576113f461161e565b5b601f19601f8301169050602081019050919050565b6000819050602082019050919050565b600081519050919050565b600081519050919050565b6000602082019050919050565b600082825260208201905092915050565b600082825260208201905092915050565b600061146a826114f9565b9150611475836114f9565b9250827fffffffffffffffffffffffffffffffffffffffffffffffffffffffffffffffff038211156114aa576114a96115c0565b5b828201905092915050565b60006114c0826114d9565b9050919050565b60006114d2826114d9565b9050919050565b600073ffffffffffffffffffffffffffffffffffffffff82169050919050565b6000819050919050565b82818337600083830152505050565b60005b83811015611530578082015181840152602081019050611515565b8381111561153f576000848401525b50505050565b6000600282049050600182168061155d57607f821691505b60208210811415611571576115706115ef565b5b50919050565b6000611582826114f9565b91507fffffffffffffffffffffffffffffffffffffffffffffffffffffffffffffffff8214156115b5576115b46115c0565b5b600182019050919050565b7f4e487b7100000000000000000000000000000000000000000000000000000000600052601160045260246000fd5b7f4e487b7100000000000000000000000000000000000000000000000000000000600052602260045260246000fd5b7f4e487b7100000000000000000000000000000000000000000000000000000000600052604160045260246000fd5b6000601f19601f8301169050919050565b611667816114b5565b811461167257600080fd5b50565b61167e816114f9565b811461168957600080fd5b5056fea2646970667358221220c567159d9d8016d72234d709fbeb30d0f568fcd9a43595e9adf8c2ed1bbecab764736f6c63430008000033",
  "immutableReferences": {},
  "source": "// SPDX-License-Identifier: MIT\npragma solidity ^0.8.0;\n\ncontract SocialContract {\n    uint256 public latestPostId = 0;\n\n    struct User {\n        string username;\n        string bio;\n        uint256[] postIds;\n    }\n\n    struct Post {\n        string title;\n        string content;\n        address payable author;\n        uint256 created;\n        uint256 donationAmount;\n    }\n\n    mapping(address => User) public users;\n    mapping(uint256 => Post) public posts;\n\n    event NewPost(address indexed author, uint256 postId, string title);\n\n    // Event emitted when an there is a donation\n    event DonateVideo(\n        uint256 id,\n        string title,\n        string content,\n        address payable author,\n        uint256 donationAmount\n    );\n\n    function createPost(string memory title, string memory content) public {\n        latestPostId++;\n\n        posts[latestPostId] = Post(\n            title,\n            content,\n            payable(msg.sender),\n            block.timestamp,\n            0\n        );\n        users[msg.sender].postIds.push(latestPostId);\n\n        emit NewPost(msg.sender, latestPostId, title);\n    }\n\n    function modifyPostTitle(uint256 postId, string memory title) public {\n        require(\n            msg.sender == posts[postId].author,\n            \"Only the author can modify\"\n        );\n\n        posts[postId].title = title;\n    }\n\n    function modifyPostContent(uint256 postId, string memory content) public {\n        require(\n            msg.sender == posts[postId].author,\n            \"Only the author can modify\"\n        );\n\n        posts[postId].content = content;\n    }\n\n    function updateUsername(string memory username) public {\n        users[msg.sender].username = username;\n    }\n\n    function updateBio(string memory bio) public {\n        users[msg.sender].bio = bio;\n    }\n\n    function getPostIdsByAuthor(address author)\n        public\n        view\n        returns (uint256[] memory)\n    {\n        return users[author].postIds;\n    }\n\n    function getPostById(uint256 postId)\n        public\n        view\n        returns (string memory title, string memory content)\n    {\n        title = posts[postId].title;\n        content = posts[postId].content;\n    }\n\n    function donateVideoOwner(uint256 _id) public payable {\n        require(_id > 0 && _id <= latestPostId);\n\n        Post memory _post = posts[_id];\n        address payable _author = _post.author;\n        payable(address(_author)).transfer(msg.value);\n        _post.donationAmount = _post.donationAmount + msg.value;\n        posts[_id] = _post;\n\n        emit DonateVideo(\n            _id,\n            _post.title,\n            _post.content,\n            _author,\n            _post.donationAmount\n        );\n    }\n}\n",
  "sourcePath": "/Users/mikoaro/Documents/Projects/VisualStudioCode/lfgrow/gitlab/qsocial/contracts/SocialContract.sol",
  "compiler": {
    "name": "solc",
    "version": "0.8.0+commit.c7dfd78e.Emscripten.clang"
  },
  "schemaVersion": "3.4.6",
  "updatedAt": "2022-03-27T13:59:55.950Z",
  "networkType": "ethereum",
  "devdoc": {
    "kind": "dev",
    "methods": {},
    "version": 1
  },
  "userdoc": {
    "kind": "user",
    "methods": {},
    "version": 1
  }
}